:100000000C9434000C9446000C9446000C9446006A
:100010000C9446000C9446000C9446000C94460048
:100020000C9446000C9446000C9446000C94460038
:100030000C9446000C9446000C9446000C94460028
:100040000C9446000C9446000C94CE000C94460090
:100050000C9446000C9446000C9446000C94460008
:100060000C9446000C94460011241FBECFEFD4E040
:10007000DEBFCDBF22E0A0E0B1E001C01D92A83FED
:10008000B207E1F70E9469010C948A010C94000008
:1000900020E030E060E870E090E0AB01022E02C0AA
:1000A000559547950A94E2F748235923452B11F0BB
:1000B0002B9A01C02B98E7ECF0E03197F1F700C0E4
:1000C00000002D9AE7ECF0E03197F1F700C0000056
:1000D0002D98E7ECF0E03197F1F700C000002F5FBA
:1000E0003F4F28303105C9F62B9AFFEF29EF80E00A
:1000F000F15020408040E1F700C00000089580E00A
:100100000E9448008FE40E94480086E50E94480053
:1001100080E20E9448008FE40E9448008EE40E9422
:100120004800089580E00E9448008FE40E94480043
:1001300086E50E94480080E20E9448008FE40E9409
:10014000480086E40E94480086E40E944800089522
:1001500084B1886284B985B1886285B980E00E94E3
:10016000480080E00E94480080E00E944800089516
:100170001092C50087E68093C400E0ECF0E0808137
:100180008D7F808386E08093C200E1ECF0E088E11F
:100190008083808180688083789408951F920F9275
:1001A0000FB60F9211242F933F934F935F936F934A
:1001B0007F938F939F93AF93BF93EF93FF93F894A5
:1001C00080910201909103019C012F5F3F4F30937A
:1001D0000301209302012091C600FC01EC5FFE4F59
:1001E000208340910201509103019A013695279591
:1001F00036952795A5ECB0E20E947B0192958295F9
:100200008F7089279F70892764EF71E0869F900126
:10021000879F300D969F300D1124CA01821B930BCE
:1002200090930301809302017894FF91EF91BF9125
:10023000AF919F918F917F916F915F914F913F917E
:100240002F910F900FBE0F901F90189520910201D3
:100250003091030180910001909101012817390725
:10026000A9F1F89480910001909101019C012F5F08
:100270003F4F3093010120930001FC01EC5FFE4FE2
:100280004081E0910001F09101019F013695279591
:1002900036952795A5ECB0E20E947B019295829558
:1002A0008F7089279F70892764EF71E0869F900186
:1002B000879F300D969F300D1124CF01821B930B29
:1002C0009093010180930001789401C04FEF842F37
:1002D00008950E94B8000E94A8000E9426018F3F46
:1002E000E1F38C3419F40E949200F7CF8434A9F71B
:1002F0000E947F00F2CFA29FB001B39FC001A39FD5
:10030000700D811D1124911DB29F700D811D11244E
:08031000911D0895F894FFCF40
:00000001FF
