:1000000010C022C021C020C01FC01EC01DC01CC007
:100010001BC01AC019C018C017C016C015C014C024
:10002000C6C011241FBECFE5D2E0DEBFCDBF10E0B9
:10003000A0E6B0E0E6E0F2E002C005900D92A23644
:10004000B107D9F73DD0DDC0DBCFD79A80B7836346
:1000500080BF83B78D6083BF12BE80E886BF84E710
:100060008CBF0895F89487B38A7F87BB1FB88EB181
:10007000807F8EB9769A88E48DB9789408951816A1
:1000800019066CF420E030E0EFECF7E03197F1F77F
:1000900000C000002F5F3F4F82179307A9F7089514
:1000A00087E78CBF84EF91E0EADF84E78CBF089597
:1000B00081E78CBF84EF91E0E2DF84E78CBF089595
:1000C000D1DFC3DF80E090E0CFEF0F2EF3E09F2E73
:1000D000F02DA12C10E0D0E00F2EF5E07F2EF02DBA
:1000E000812C6894BB24B2F8C12CFF24F39400E067
:1000F0006894DD24D1F8E12C11C0812F9D2F0EC012
:10010000812F9D2F0BC0812F9D2F08C0812F9D2FE8
:1001100005C0812F9D2F02C0812F9D2FF894209123
:1001200060002F3F29F020916000C093600001C063
:100130002C2F78942F3F91F382309105D9F02CF435
:10014000009751F0019789F0D8CF84309105E1F004
:10015000B4F0059729F1D1CF4F2D302F2F3411F066
:10016000412F3D2F842F932FD9CF263549F68D2D42
:100170009E2DD4CF203239F6892D9A2DCFCF2F3412
:1001800029F68B2D9C2DCACF2E3421F489DF812FA7
:100190009D2FC4CF263409F0BCCF872D982DBECF1C
:1001A000263409F0B9CF84DF812F9D2FB7CF1F925E
:1001B0000F920FB60F9211242F933F934F935F939B
:1001C0006F937F938F939F93AF93BF93EF93FF931F
:1001D0008FB18093600046DF8AE090E050DF42DF1D
:1001E000FF91EF91BF91AF919F918F917F916F910F
:1001F0005F914F913F912F910F900FBE0F901F90E5
:060200001895F894FFCFF1
:02020600FF00F7
:00000001FF
